:1000EB003F065B4F666D7D077F6F777C395E79715D
:0100FB000004
:03010C00010800E7
:1000B200D3EF9400EE940040147D647C00ED1D703B
:0D00C200011CED4C70F7EF1F70E61E80E38F
:0100CF00220E
:1000D00053877F75985053890F438920758BFD7521
:0B00E0008DFDC2ABD28ED2ACD2AF229D
:0800FC008F993099FDC2992291
:08010400AF993099FDC2992268
:10008F00759840758920E4F587758DFD758BFDC2D8
:10009F0099D28E7FF47E011200B2AEA0AF0612008D
:0300AF00FC80F0E2
:03000000020003F8
:0C000300787FE4F6D8FD75810802004A01
:10000F0002008FE493A3F8E493A34003F68001F278
:10001F0008DFF48029E493A3F85407240CC8C333F2
:10002F00C4540F4420C8834004F456800146F6DFC1
:10003F00E4800B010204081020408090010CE47E44
:10004F00019360BCA3FF543F30E509541FFEE493B6
:10005F00A360010ECF54C025E060A840B8E493A37D
:10006F00FAE493A3F8E493A3C8C582C8CAC583CAA8
:10007F00F0A3C8C582C8CAC583CADFE9DEE780BE60
:01010F0000EF
:00000001FF
