:100086003F065B4F666D7D077F6F777C395E7971C2
:010096000069
:10004D00D3EF9400EE940040147D647C00ED1D70A0
:0D005D00011CED4C70F7EF1F70E61E80E3F4
:01006A002273
:10006B0053877F75985053890F438920758BFD7586
:0B007B008DFDC2ABD28ED2ACD2AF2202
:0800A3008F993099FDC29922EA
:10000300E4F9FB759850758920758DFD758BFDF5A9
:1000130087C298D28E3098FDC298AA99EA54F0C448
:10002300540FF9EA540FFBE990008693F580C2A0C0
:10003300D2A17F647E0012004DEB93F580D2A0C263
:0A004300A17F017E0012004D80CB6A
:0300000002009764
:0C009700787FE4F6D8FD758108020003B4
:00000001FF
